:02000004080AE8
:1000000000000A0858290A08000006000600050139
:0800100004027C050000000061
:0400180020250A088D
:10001C0009480A4908B5884205D0094A824202D0EB
:10002C00121A02F033FA0748074A0021121A02F09A
:10003C0038FA064808BD00BF00000020C4280A0892
:10004C006C0000206C0000209C0600209C06002008
:10005C0070B500F0C5FF074B074C1E46E41AA40808
:10006C000025A54204D056F8253098470135F8E70D
:10007C0070BD00BF80280A08C0280A0800F012B81A
:10008C0008B500F053F8BDE8084000F06BBF00F075
:10009C0087BD0078B0FA80F04009704701230370E7
:1000AC00704700001FB501F09BF84FF4E13101F0EF
:1000BC007DF801F095F8184900F0DBFD01F0D2FA5B
:1000CC0057230146154A164800F07AFA28B901F070
:1000DC0087F8144900F0CDFDFEE701F081F81249D4
:1000EC0000F0C7FD40F29B124FF4C8714FF48053DF
:1000FC008DE80E000A48032304221F2100F01FFB89
:10010C000A21074800F08BFA0548002105B05DF87C
:10011C0004EB00F08EBA00BF34250A08801A0600E2
:10012C007400002044250A0878250A082DE9F347B5
:10013C00414800F02DFA054600F0E2F83F4F404EE2
:10014C00002841D000F0C6FBDFF81881D8F8003049
:10015C00C41A00F0BFFBC8F80000204601F044FDB3
:10016C000022384B01F0D0FE02460B4600203649E7
:10017C0001F0CAFE02F096F834493860814602F06C
:10018C002FF908B33249484602F048F9E0B1484625
:10019C0002F04EF9DFF8D0A0DFF8D0809AF80040DA
:1001AC0008F8040098F8002098F801300134134442
:1001BC0098F8022004F00304134498F803208AF8FA
:1001CC00004013449B10336001F00AF8214900F001
:1001DC003DFD01F005F80A22294600F080FD00F0F3
:1001EC00FFFF1D4900F032FD00F0FAFF04463868AD
:1001FC0001F00CFD02230246009320460B4600F052
:10020C0041FE00F0EDFF154900F020FD00F0E8FF85
:10021C000A22316800F085FD4CF24F339D4204DC1C
:10022C0000F0DEFF0E4900F011FD00F0D9FF02B026
:10023C00BDE8F04700F011BD74000020B8000020AC
:10024C007000002000408F4000004E4000007F43B3
:10025C000000A041B4250A08B8250A08BF250A08E1
:10026C00CA250A08B0000020BC000020B400002001
:10027C0008B500F017FBBDE80840014800F0AAB82B
:10028C00740000200368C3EBC13103EB211303603E
:10029C0043F3CF30704700001649F0B50E46164DAB
:1002AC00164F2B78A3F10B0202F01F0221F813005A
:1002BC0031F91200A3F1160E000300220EEB02011D
:1002CC009C1A01F01F0104F01F0436F811C036F817
:1002DC00141037F912406144013209B20B2A04FBA5
:1002EC000100EBD1013303F01F032B7040F3CF302F
:1002FC00F0BD00BFCE0000200E010020D6250A085C
:10030C00F8B5294D82B2294C2B88114628482380F8
:10031C00FFF7B8FF274B1880101A00B2FFF7BCFF8D
:10032C00B4F900202880002A234C24491ADA03044B
:10033C0018D4234E234DB6F90030234F2B80234D78
:10034C00B5F900503D805B1B40F2D235153B0127BF
:10035C00AB4227804FF000070F8037808CBF002303
:10036C00012300E00023002A07DD002805DC01261C
:10037C000E80164E002525803580B4F90040904241
:10038C00D4BF002404F001040CB10D4C2080B1F951
:10039C0000109042ACBF002201F001020AB10B4ADE
:1003AC0010801846F8BD00BFCC000020CA00002009
:1003BC00C4000020BE00002010010020C00000205E
:1003CC00120100200200002000000020C8000020C4
:1003DC0000F068BA704770B5044616460D460068C2
:1003EC0001F037F82068314603689B689847002174
:1003FC00206801F035F801222946206801F021F827
:10040C00206803681B69984720B1206803685B6902
:10041C009847C0B270BD04220179FFF7DCBF0622F9
:10042C000179FFF7D8BF2DE9F7430446FFF7F7FF33
:10043C0005462046FFF7EFFF854200F08E80471BF4
:10044C004FF05701206848BF2037667901F005F856
:10045C002068072103687E439B689847206801F059
:10046C0003F806EB46064FF020084FF00009002E6B
:10047C0074DD202EC9BF6579354605EB450598FB23
:10048C00F5F3C8BF5D4357212A462068761B00F060
:10049C00DBFF002DEBDD94F838302068013303F0DE
:1004AC00030384F8383003688DF807905B6998472C
:1004BC008DF80600206803685B6998478DF8050085
:1004CC00206803685B6998478DF8040094F838300D
:1004DC00019A0233C2F3110244F823206379012BF1
:1004EC0019D9206803685B6998478DF80600206865
:1004FC0003685B6998478DF80500206803685B69A1
:10050C0098478DF8040094F83830019A0633C2F3FA
:10051C00110244F823206379022B19D9206803684F
:10052C005B6998478DF80600206803685B699847FB
:10053C008DF80500206803685B6998478DF8040006
:10054C0094F83830019A0A33C2F3110244F823208C
:10055C006379A3EB83031D449BE70027B8B203B078
:10056C00BDE8F08370B505460E4600F0B3F90446BD
:10057C0000F0B0F9001BB04208D82846FFF753FF33
:10058C00012804D0012000F09BFCF1E7002070BD95
:10059C0010B5FA210446FFF7E5FF20B194F8383086
:1005AC00063354F8230010BDFF220179FFF713BF67
:1005BC0010B5FE2201790446FFF70DFFA07110BDA6
:1005CC0070B5044616461D460846216000F02AFF09
:1005DC003146206800F022FF25712046FFF7E4FF2A
:1005EC00152804D12046FFF7E3FF012070BD002041
:1005FC0070BD70B5044616461D46006800F029FF14
:10060C002068314603689B68984720682946036830
:10061C009A6890472068BDE8704000F025BF0B46F3
:10062C000C220179FFF7E5BF0B460D220179FFF78C
:10063C00E0BF0B460E220179FFF7DBBF0B46102201
:10064C000179FFF7D6BF10B50446017900230422C7
:10065C00FFF7CFFF2179204600230522FFF7C9FFC2
:10066C0021792046BDE8104000230622FFF7C1BFC8
:10067C002DE9F0410E4615460A46017904461F46FF
:10068C00FFF7A9FE284047EA0003324621792046AD
:10069C00BDE8F041FFF7ADBF38B5BF2240230921BB
:1006AC000446FFF7E5FF00F015F9054600F012F9D6
:1006BC00401B63280AD8092221792046FFF78BFEBC
:1006CC00430603D5012000F0FBFBEFE738BD0B46DA
:1006DC00F8220921FFF7CCBF0B469F220A21FFF716
:1006EC00C7BF0B46E3220A21FFF7C2BF0B46FC2211
:1006FC000A21FFF7BDBF0B461F220821FFF7B8BF29
:10070C001023EF220821FFF7B3BF01391346032949
:10071C0014D8DFE801F002040A0CF82203E01B01F4
:10072C0003F0F0038F22112106E0F82203E01B01F5
:10073C0003F0F0038F221221FFF79ABF70472DE9C7
:10074C00F047164608AD044695E8200688461F4635
:10075C00FFF7A2FF012E01D1002112E0022E01D1E0
:10076C0020210EE0042E01D140210AE0082E01D1F7
:10077C00602106E0102E01D1802102E0202EF3D161
:10078C00A0212046FFF7B7FF2046FFF7B9FF032F44
:10079C0001D1072103E0022F0CBF032102212046C7
:1007AC00FFF795FFBAF5805F677101DA00210BE066
:1007BC00BAF5005F01DA202106E0BAF5804F01DAC4
:1007CC00402101E0F2D160212046FFF785FF632D27
:1007DC0001DC00211EE0C72D01DC04211AE0B5F577
:1007EC00C87F01DA082115E0B5F5487F01DA0C2144
:1007FC0010E0B5F57A7F01DA10210BE0B5F5C86F82
:10080C0001DA142106E0B5F5486F01DA182101E090
:10081C00DFD11C212046FFF764FFB9F1750F01DC15
:10082C0000210EE0B9F1D60F01DC012109E0B9F588
:10083C00CD7F01DC022104E040F29B139945EFD1FE
:10084C0003212046FFF752FF41462046FFF7E7FE03
:10085C0041462046FFF7E8FE41462046FFF7E9FEF9
:10086C0041462046FFF7EAFE012211462046FFF7DB
:10087C004CFF012F0CD920238F2211212046FFF78A
:10088C00F7FE022F04D0032211462046FFF73DFF4E
:10089C002046BDE8F047FFF7D6BE00F003B800F0E5
:1008AC0001B8000008B5024B1B681B68019308BD1A
:1008BC00B001060808B5024B1B68DB69019308BD43
:1008CC00B401060808B5024B1B685B68019308BDB0
:1008DC009C01060808B5024B1B685B69019308BDB7
:1008EC009C01060808B5024B1B681B6B019308BDE5
:1008FC00D001060808B5024B1B689B69019308BD23
:10090C00C401060808B5024B1B685B6A019308BD5D
:10091C00C401060808B5024B1B689B6A019308BD0D
:10092C00C401060808B5024B1B68DB6A019308BDBD
:10093C00C401060808B5024B1B681B6B019308BD6C
:10094C00C401060808B5024B1B685B6B019308BD1C
:10095C00C401060808B5024B1B681B6C019308BD4B
:10096C00C401060808B5024B1B681B6C019308BD3B
:10097C00AC01060808B5024B1B68DB6C019308BD83
:10098C00AC01060808B5024B1B685B6D019308BDF2
:10099C00AC01060808B5024B1B689B6D019308BDA2
:1009AC00AC01060808B5024B1B68DB6D019308BD52
:1009BC00AC01060808B5024B1B681B6E019308BD01
:1009CC00AC01060808B5024B1B685B6E019308BDB1
:1009DC00AC01060808B5024B1B689B6E019308BD61
:1009EC00AC01060808B5024B1B68DB6E019308BD11
:1009FC00AC01060808B5024B1B681B6F019308BDC0
:100A0C00AC01060808B5034B1B68D3F88030019382
:100A1C0008BD0000AC01060808B5024B1B681B683A
:100A2C00019308BDD801060808B5024B1B685B682A
:100A3C00019308BDD801060808B5024B1B681B6959
:100A4C00019308BDD801060808B5024B1B685B6909
:100A5C00019308BDD801060808B5024B1B689B69B9
:100A6C00019308BDD801060808B5024B1B68DB6969
:100A7C00019308BDD801060808B5024B1B681B6A18
:100A8C00019308BDD801060808B5024B1B689B6C86
:100A9C00019308BDC001060808B5024B1B685B68D2
:100AAC00019308BDA401060808B5024B1B685B69DD
:100ABC00019308BDA401060808B5034B1B68D3F8C5
:100ACC009030019308BD0000A401060808B5034B43
:100ADC001B68D3F89C30019308BD0000A4010608E4
:100AEC0008B5024B1B685B68019308BDC80106087A
:100AFC0008B5024B1B689B68019308BDC80106082A
:100B0C0008B5024B1B68DB68019308BDC8010608D9
:100B1C0008B5024B1B681B69019308BDC801060888
:100B2C0008B5024B1B685B69019308BDC801060838
:100B3C0008B5024B1B689B69019308BDC8010608E8
:100B4C0008B5024B1B68DB69019308BDC801060898
:100B5C0008B5024B1B681B6A019308BDC801060847
:100B6C0008B5024B1B681B6B019308BDC801060836
:100B7C0008B5024B1B685B6B019308BDC8010608E6
:100B8C0008B5024B1B68DB6B019308BDCC01060852
:100B9C0008B5024B1B681B68019308BDA001060831
:100BAC0008B5024B1B685B68019308BDA0010608E1
:100BBC00704710B50446102100F079FD204610BD99
:100BCC0070B504460E46074B0025036040F80C5FD9
:100BDC00FFF788FE30462671FFF76CFEA5602046B5
:100BEC0070BD00BFF8250A084FF6FF72034B0020BA
:100BFC00187058809A80FFF74FBF00BF1401002077
:100C0C00F8B506460D468F180024BD420CD033684B
:100C1C0015F8011B9B6830469847002801DB0444FB
:100C2C00F3E7002C08BF04462046F8BD70B5054616
:100C3C000C46084649B101F065FC2B68024621467A
:100C4C002846BDE87040DB68184770BD08B5FFF753
:100C5C00EDFF08BD03689B68184738B50D210546A4
:100C6C00FFF7F8FF0A2104462846FFF7F3FF20445C
:100C7C0038BD38B50546FFF7D9FF04462846FFF7BF
:100C8C00ECFF204438BD012A98BF0A2230B50B4630
:100C9C008BB000218DF824100DF12304B3FBF2F579
:100CAC0005FB1233DBB2092B94BF30333733DBB285
:100CBC00214604F801392B46002DEFD1FFF7B6FF82
:100CCC000BB030BD10B422B90368C9B29B6810BC1C
:100CDC001847D2B210BCFFF7D6BFFFF7F3BF2DE910
:100CEC00F04107460E4615462AB9BDE8F0410368A7
:100CFC00C9B29B6818470A2A02D1002901DA04E01C
:100D0C00D2B2BDE8F041FFF7BEBF2D21FFF7A2FF25
:100D1C002A46044671423846FFF7B5FF2044BDE829
:100D2C00F081FFF7DCBF00002DE9F843194680463F
:100D3C00104617461E469DF8205001F055FA08B192
:100D4C00474912E026F000444FF0FF32454B38463D
:100D5C00214601F049FA68B94FF0FF32414B384651
:100D6C00214601F023FA28B93F494046FFF75EFFC0
:100D7C00BDE8F8834FF060423C4B3846314601F0F9
:100D8C0029FA08B13A49F0E74FF06042394B38463E
:100D9C00314601F001FA0028F4D100220023384634
:100DAC00314601F0F9F938B12D214046FFF752FFD9
:100DBC0006F10046044600E004462F494FF00009B6
:100DCC0000205FFA89F39D4206D900222B4B01F0DB
:100DDC009BF809F10109F4E73A46334600F0B8FDF7
:100DEC000F46064601F03EFA0A220146814640466D
:100DFC00FFF749FF04447DB3484600F0E5FE024688
:100E0C000B463046394600F0A1FD06460F464046DB
:100E1C001B49FFF70BFF0444184B002230463946A0
:100E2C0000F048FF0F46064601F0F4F90A2201468D
:100E3C0081464046FFF753FF0444484600F0D4FE79
:100E4C0002460B463046394600F080FD013D15F058
:100E5C00FF0506460F46DFD12046BDE8F88300BFEC
:100E6C0000260A08FFFFEF7F08260A08FFFFEF4164
:100E7C0004260A08FFFFEFC10000E03F00002440F9
:100E8C0042250A089DF800100091FFF74DBF002382
:100E9C001A4619464068FFF743BE0000014A024B50
:100EAC001A60704782260A081C010020024B1A683F
:100EBC00024B1A60704700BF040000202001002084
:100ECC000021FFF7F1BD10B58368044613B103226E
:100EDC0001469847204610BD10B50446FFF7F3FFB6
:100EEC00204610BD034800238360034A034900F0E9
:100EFC00D9BB00BF240100206C000020E50E0A08BD
:100F0C0008B5144B33B100F06BF903681B699847B3
:100F1C00002816DC104B33B100F01CFA03681B6977
:100F2C009847002810DC0D4B0BB1AFF300800C4B35
:100F3C007BB100F091F903681B699847002806DC27
:100F4C0008BDAFF30080E5E7AFF30080EBE7AFF34C
:100F5C00008008BD00000000000000000000000040
:100F6C000000000008B5FFF7CBFFFFF7B3FC014B07
:100F7C00186008BDC80500200248034A0349121A2C
:100F8C0001F084BA0040024004400240C0280A0824
:100F9C0007B5002300931A466FF07701FFF796FD13
:100FAC0003B05DF804FB000007B543880A2B08D09A
:100FBC00502B09D1094B1B683BB103B05DF804EB16
:100FCC001847FFF7E5FF06E0002300931A466FF081
:100FDC007701FFF77BFD03B05DF804FB34010020C3
:100FEC0038B5104C104D2368AB42104B0CBF01228E
:100FFC0000221A7002D0FFF7BFFF2560FFF762FCDA
:10100C00044601F057FA0A4B13B12046AFF30080A7
:10101C0000210748FFF7B4FDBDE838400021054822
:10102C00FFF74ABD004002401E1C279A38010020E1
:10103C0000000000B50F0A08704710B504461821CF
:10104C0000F035FB204610BDF8B50F4600F1080640
:10105C00051D002416F8011D0A223846FFF73DFE37
:10106C00AE42044407D0002CF4D02E213846FFF7B2
:10107C00F1FD0444EEE72046F8BD000010B504462F
:10108C00044B112240F8043B002101F00AFA2046DF
:10109C0010BD00BF20270A080346074A10B543F8C5
:1010AC00042B01F1100251F8044B914243F8044B0C
:1010BC00F9D10A781A7010BD20270A08024A41603B
:1010CC00026004220275704720270A0810B59DF8AB
:1010DC00084044EA032343EA024242EA0161042342
:1010EC004160037510BD000037B5044D05609DF8D7
:1010FC0018500095FFF7EAFF03B030BD20270A080F
:10110C0041747047704708B50021007CFFF7A4FCC0
:10111C0030EA200028BF4FF0FF3008BD08B5012190
:10112C00007CFFF799FC30EA200028BF4FF0FF301D
:10113C0008BD08B5007CFFF787FC20EAE07008BD0D
:10114C0008B5007CFFF778FC20EAE07008BD007C55
:10115C00FFF792BC10B50446142100F0A8FA204603
:10116C0010BD38B50446007C0D46FFF76DFC002819
:10117C0001DC607C28B12946207CFFF775FC20EA55
:10118C00E07038BD10B50446002363604FF47A73E9
:10119C00A360054B08462360012321746374114638
:1011AC00FFF73AFC204610BD34270A080022007CC9
:1011BC00FFF73ABC10B504461422002101F071F976
:1011CC00054B20466360054BE36040F2011323811D
:1011DC008123238210BD00BFC101002040010020EB
:1011EC0030B50E4D87B001A8FFF7E4FF296811F068
:1011FC00010410D12846FEF74CFF60B101AA21462C
:10120C000748FFF7BFFF2846FEF748FF054A064987
:10121C00034800F047FA024807B030BD3C010020FB
:10122C00C40200206C00002011110A0810B50446FD
:10123C001422002101F035F9054B20466360054B63
:10124C00E36040F2011323818123238210BD00BF90
:10125C0074030020DC02002010B50E4C86B001A8EF
:10126C00FFF7E4FF2368DB0710D42046FEF711FFDD
:10127C0060B101AA01210848FFF784FF2046FEF760
:10128C000DFF064A0649044800F00CFA024806B065
:10129C0010BD00BFD8020020600300206C000020AD
:1012AC0011110A0870474174704708B5007CFFF7AC
:1012BC0051FB20EAE07008BD08B5007CFFF72AFB63
:1012CC0020EAE07008BD08B5007CFFF733FB30EA7C
:1012DC00200028BF4FF0FF3008BD08B5007CFFF799
:1012EC0021FB30EA200028BF4FF0FF3008BD007C06
:1012FC00FFF728BB10B50446142100F0D8F920469E
:10130C0010BD70B5457C04460E4625B9007CFFF730
:10131C0021FB002805DD3146207CBDE87040FFF73D
:10132C00F1BA284670BD000010B5044608461146B7
:10133C00002262604FF47A72A260054A2074226027
:10134C00012262741A46FFF7D5FA204610BD00BF81
:10135C0064270A0838B50C4D296811F0010411D125
:10136C002846FEF796FE68B1084A2146084B094804
:10137C00FFF7DAFF2846FEF791FE074A07490548B2
:10138C0000F090F9034838BD10050020140500202A
:10139C008C040020780400206C000020B1120A0894
:1013AC007047F8B5064615460C468F18BC4206D059
:1013BC00336814F8011B9B6830469847F6E72846BB
:1013CC00F8BD0022007CFFF7F5BA0021007CFFF786
:1013DC00F9BA0021007CFFF7FDBA0021007CFFF771
:1013EC0001BB0021007CFFF705BB10B5044614219E
:1013FC0000F05DF9204610BD10B5044608464FF4C8
:10140C007A73A360044B0021207461602360FFF7A2
:10141C00F9FA204610BD00BF94270A080022007C70
:10142C00FFF7A0BA00231A461946007CFFF7A2BAB0
:10143C0013B50024007C0094FFF7A4FAC0B202B0EC
:10144C0010BD0123FFF7F4BF0123D2B2C9B2FFF7DD
:10145C00EFBF0022007CFFF79DBAC9B2FFF7F9BFBE
:10146C000022007CFFF79EBA0121FFF7F9BF002292
:10147C0011464068FFF74CBBF0B5164689B01122F7
:10148C000F460446002103A801F00BF8304601F08A
:10149C0039F80025009581B27B6803AA3046FFF726
:1014AC00F3FA20B129462046FFF708FE03E003A912
:1014BC002046FFF7F1FD204609B0F0BD0022114691
:1014CC004068FFF745BB002211464068FFF750BB50
:1014DC0000224068FFF744BB002281F00101406804
:1014EC00FFF72EBB00231A4619464068FFF720BBB6
:1014FC00002211464068FFF7FBBA00220221406827
:10150C00FFF7FEBA00231A464068FFF7E9BA00005D
:10151C00024B04225A60024A1A6070479805002058
:10152C00BC270A0800231A464068FFF7D9BA0022E4
:10153C0002214068FFF7E4BA002211464068FFF729
:10154C00D7BA002211464068FFF7E2BA00231A46C8
:10155C0019464068FFF7E4BA00231A46194640685A
:10156C00FFF7E6BA002281F001014068FFF7E8BA04
:10157C0000224068FFF7F4BA002211464068FFF7DA
:10158C00F7BA002211464068FFF7E2BA70B516466A
:10159C008EB0044608A8FFF771FD1122002103A8A4
:1015AC0000F07FFF304600F0ADFF00250A4B0095A0
:1015BC0081B25B6803AA3046FFF766FA20B1294670
:1015CC002046FFF77BFD03E003A92046FFF764FDEF
:1015DC0020460EB070BD00BF98050020024B034A98
:1015EC001A6000225A607047A0050020F0270A08F4
:1015FC0070B50C4C0C4E0D4D00212046FFF7E0FA57
:10160C0020460B4C3246294600F04CF8012120466E
:10161C00FFF7D6FA324629462046BDE8704000F066
:10162C0041B800BFA80500206C000020BD0B0A08C3
:10163C00B805002013B5084C00231A461946009330
:10164C002046FFF751FD2046044A054902B0BDE88B
:10165C00104000F027B800BFCC0500206C00002023
:10166C0045100A0838B50B4D296811F001040FD14B
:10167C002846FEF70EFD58B121460748FFF7BCFE81
:10168C002846FEF70BFD054A0549034800F00AF809
:10169C00014838BDE4050020E80500206C0000205E
:1016AC00AD130A080B460146184600F0E1BEFEF7E2
:1016BC00EEBC0000184B1A68D1075CBF01221A60FF
:1016CC00164B1A68D2075CBF01221A60144B1A68B9
:1016DC00D0075CBF01221A60124B1A68D1075CBF9D
:1016EC0001221A60104B1A68D2075CBF01221A60E3
:1016FC000E4B1A68D0075CBF01221A600C4B1A689B
:10170C00D1075CBF01221A600A4B1A68D2075CBF72
:10171C0001221A60704700BF180600201406002032
:10172C00100600200C0600200806002004060020ED
:10173C0000060020FC050020244B1A68D0075CBF73
:10174C0001221A60224B1A68D1075CBF01221A6071
:10175C00204B1A68D2075CBF01221A601E4B1A6814
:10176C00D0075CBF01221A601C4B1A68D1075CBF02
:10177C0001221A601A4B1A68D2075CBF01221A6048
:10178C00184B1A68D0075CBF01221A60164B1A68F6
:10179C00D1075CBF01221A60144B1A68D2075CBFD8
:1017AC0001221A60124B1A68D0075CBF01221A6022
:1017BC00104B1A68D1075CBF01221A600E4B1A68D5
:1017CC00D2075CBF01221A60704700BF4806002098
:1017DC0044060020400600203C060020380600206D
:1017EC0034060020300600202C060020280600209D
:1017FC0024060020200600201C060020244B1A681A
:10180C00D0075CBF01221A60224B1A68D1075CBF5B
:10181C0001221A60204B1A68D2075CBF01221A60A1
:10182C001E4B1A68D0075CBF01221A601C4B1A6849
:10183C00D1075CBF01221A601A4B1A68D2075CBF31
:10184C0001221A60184B1A68D0075CBF01221A607B
:10185C00164B1A68D1075CBF01221A60144B1A6828
:10186C00D2075CBF01221A60124B1A68D0075CBF0A
:10187C0001221A60104B1A68D1075CBF01221A6052
:10188C000E4B1A68D2075CBF01221A60704700BF6A
:10189C007806002074060020700600206C060020DC
:1018AC006806002064060020600600205C0600200C
:1018BC005806002054060020500600204C0600203C
:1018CC00184B1A68D1075CBF01221A60164B1A68B4
:1018DC00D2075CBF01221A60144B1A68D0075CBF98
:1018EC0001221A60124B1A68D1075CBF01221A60E0
:1018FC00104B1A68D2075CBF01221A600E4B1A6893
:10190C00D0075CBF01221A600C4B1A68D1075CBF70
:10191C0001221A600A4B1A68D2075CBF01221A60B6
:10192C00704700BF98060020940600209006002007
:10193C008C060020880600208406002080060020EB
:10194C007C06002081F0004102E000BF83F00043E0
:10195C0030B54FEA41044FEA430594EA050F08BF3E
:10196C0090EA020F1FBF54EA000C55EA020C7FEA02
:10197C00645C7FEA655C00F0E2804FEA5454D4EB7F
:10198C005555B8BF6D420CDD2C4480EA020281EA49
:10199C00030382EA000083EA010180EA020281EA81
:1019AC000303362D88BF30BD11F0004F4FEA0131D3
:1019BC004FF4801C4CEA113102D0404261EB4101E2
:1019CC0013F0004F4FEA03334CEA133302D0524268
:1019DC0063EB430394EA050F00F0A780A4F1010424
:1019EC00D5F1200E0DDB02FA0EFC22FA05F280185E
:1019FC0041F1000103FA0EF2801843FA05F3594144
:101A0C000EE0A5F120050EF1200E012A03FA0EFCC2
:101A1C0028BF4CF0020C43FA05F3C01851EBE371EC
:101A2C0001F0004507D54FF0000EDCF1000C7EEB09
:101A3C0000006EEB0101B1F5801F1BD3B1F5001F47
:101A4C000CD349085FEA30004FEA3C0C04F1010466
:101A5C004FEA445212F5800F80F09A80BCF1004F8F
:101A6C0008BF5FEA500C50F1000041EB045141EA11
:101A7C00050130BD5FEA4C0C404141EB010111F412
:101A8C00801FA4F10104E9D191F0000F04BF0146BD
:101A9C000020B1FA81F308BF2033A3F10B03B3F19B
:101AAC0020020CDA0C3208DD02F1140CC2F10C022B
:101ABC0001FA0CF021FA02F10CE002F11402D8BF89
:101ACC00C2F1200C01FA02F120FA0CFCDCBF41EA55
:101ADC000C019040E41AA2BF01EB0451294330BD24
:101AEC006FEA04041F3C1CDA0C340EDC04F1140401
:101AFC00C4F1200220FA04F001FA02F340EA0300D8
:101B0C0021FA04F345EA030130BDC4F10C04C4F11D
:101B1C00200220FA02F001FA04F340EA03002946FD
:101B2C0030BD21FA04F0294630BD94F0000F83F447
:101B3C00801306BF81F480110134013D4EE77FEA2A
:101B4C00645C18BF7FEA655C29D094EA050F08BF76
:101B5C0090EA020F05D054EA000C04BF1946104657
:101B6C0030BD91EA030F1EBF0021002030BD5FEA9B
:101B7C00545C05D14000494128BF41F0004130BDC3
:101B8C0014F580043CBF01F5801130BD01F0004517
:101B9C0045F0FE4141F470014FF0000030BD7FEA8A
:101BAC00645C1ABF194610467FEA655C1CBF0B4685
:101BBC00024650EA013406BF52EA033591EA030F9C
:101BCC0041F4002130BD00BF90F0000F04BF002194
:101BDC00704730B54FF4806404F132044FF00005C7
:101BEC004FF0000150E700BF90F0000F04BF002140
:101BFC00704730B54FF4806404F1320410F00045A6
:101C0C0048BF40424FF000013EE700BF42004FEAA0
:101C1C00E2014FEA31014FEA02701FBF12F07F431D
:101C2C0093F07F4F81F06051704792F0000F14BF1A
:101C3C0093F07F4F704730B54FF4607401F000455E
:101C4C0021F0004120E700BF50EA010208BF7047B5
:101C5C0030B54FF000050AE050EA010208BF7047AA
:101C6C0030B511F0004502D5404261EB41014FF413
:101C7C00806404F132045FEA915C3FF4DCAE4FF017
:101C8C0003025FEADC0C18BF03325FEADC0C18BFFE
:101C9C00033202EBDC02C2F1200300FA03FC20FA4F
:101CAC0002F001FA03FE40EA0E0021FA02F114449C
:101CBC00C1E600BF70B54FF0FF0C4CF4E06C1CEAB1
:101CCC0011541DBF1CEA135594EA0C0F95EA0C0F26
:101CDC0000F0DEF82C4481EA030621EA4C5123EA99
:101CEC004C5350EA013518BF52EA033541F48011C8
:101CFC0043F4801338D0A0FB02CE4FF00005E1FB7B
:101D0C0002E506F00042E0FB03E54FF00006E1FBC4
:101D1C0003569CF0000F18BF4EF0010EA4F1FF0407
:101D2C00B6F5007F64F5407404D25FEA4E0E6D4147
:101D3C0046EB060642EAC62141EA55514FEAC52058
:101D4C0040EA5E504FEACE2EB4F1FD0C88BFBCF5D4
:101D5C00E06F1ED8BEF1004F08BF5FEA500E50F185
:101D6C00000041EB045170BD06F0004646EA01014B
:101D7C0040EA020081EA0301B4EB5C04C2BFD4EB7D
:101D8C000C0541EA045170BD41F480114FF0000E76
:101D9C00013C00F3AB8014F1360FDEBF002001F0E4
:101DAC00004170BDC4F10004203C35DA0C341BDC5E
:101DBC0004F11404C4F1200500FA05F320FA04F030
:101DCC0001FA05F240EA020001F0004221F0004164
:101DDC0010EBD37021FA04F642EB06015EEA430ED7
:101DEC0008BF20EAD37070BDC4F10C04C4F1200507
:101DFC0000FA04F320FA05F001FA04F240EA0200BA
:101E0C0001F0004110EBD37041F100015EEA430E8A
:101E1C0008BF20EAD37070BDC4F1200500FA05F2AA
:101E2C004EEA020E20FA04F301FA05F243EA020329
:101E3C0021FA04F001F0004121FA04F220EA020038
:101E4C0000EBD3705EEA430E08BF20EAD37070BD7E
:101E5C0094F0000F0FD101F00046400041EB01015E
:101E6C0011F4801F08BF013CF7D041EA060195F040
:101E7C00000F18BF704703F00046520043EB0303FA
:101E8C0013F4801F08BF013DF7D043EA06037047E7
:101E9C0094EA0C0F0CEA135518BF95EA0C0F0CD0F2
:101EAC0050EA410618BF52EA4306D1D181EA030138
:101EBC0001F000414FF0000070BD50EA410606BF32
:101ECC001046194652EA430619D094EA0C0F02D177
:101EDC0050EA013613D195EA0C0F05D152EA0336BC
:101EEC001CBF104619460AD181EA030101F00041DA
:101EFC0041F0FE4141F470014FF0000070BD41F023
:101F0C00FE4141F4780170BD70B54FF0FF0C4CF4FC
:101F1C00E06C1CEA11541DBF1CEA135594EA0C0F1B
:101F2C0095EA0C0F00F0A7F8A4EB050481EA030E68
:101F3C0052EA03354FEA013100F088804FEA03334F
:101F4C004FF0805545EA131343EA12634FEA02221D
:101F5C0045EA111545EA10654FEA00260EF00041DE
:101F6C009D4208BF964244F1FD0404F5407402D230
:101F7C005B084FEA3202B61A65EB03055B084FEAC1
:101F8C0032024FF480104FF4002CB6EB020E75EBBE
:101F9C00030E22BFB61A754640EA0C005B084FEAE6
:101FAC003202B6EB020E75EB030E22BFB61A754663
:101FBC0040EA5C005B084FEA3202B6EB020E75EBAE
:101FCC00030E22BFB61A754640EA9C005B084FEA26
:101FDC003202B6EB020E75EB030E22BFB61A754633
:101FEC0040EADC0055EA060E18D04FEA051545EA22
:101FFC0016754FEA06164FEAC30343EA52734FEACB
:10200C00C2025FEA1C1CC0D111F4801F0BD141EA43
:10201C0000014FF000004FF0004CB6E711F4801FA8
:10202C0004BF01430020B4F1FD0C88BFBCF5E06F88
:10203C003FF6AFAEB5EB030C04BFB6EB020C5FEA98
:10204C00500C50F1000041EB045170BD0EF0004EED
:10205C004EEA113114EB5C04C2BFD4EB0C0541EA1F
:10206C00045170BD41F480114FF0000E013C90E61C
:10207C0045EA060E8DE60CEA135594EA0C0F08BFE0
:10208C0095EA0C0F3FF43BAF94EA0C0F0AD150EADF
:10209C0001347FF434AF95EA0C0F7FF425AF104672
:1020AC0019462CE795EA0C0F06D152EA03353FF49A
:1020BC00FDAE1046194622E750EA410618BF52EA17
:1020CC0043067FF4C5AE50EA41047FF40DAF52EAEB
:1020DC0043057FF4EBAE12E74FF0FF3C06E000BF88
:1020EC004FF0010C02E000BF4FF0010C4DF804CD95
:1020FC004FEA410C7FEA6C5C4FEA430C18BF7FEA55
:10210C006C5C1BD001B050EA410C0CBF52EA430C82
:10211C0091EA030F02BF90EA020F0020704710F102
:10212C00000F91EA030F58BF994208BF90422CBF91
:10213C00D8176FEAE37040F0010070474FEA410C8A
:10214C007FEA6C5C02D150EA013C07D14FEA430CA8
:10215C007FEA6C5CD6D152EA033CD3D05DF8040B19
:10216C00704700BF8446104662468C46194663464B
:10217C0000E000BF01B5FFF7B7FF002848BF10F122
:10218C00000F01BD4DF808EDFFF7F4FF0CBF012067
:10219C0000205DF808FB00BF4DF808EDFFF7EAFFE3
:1021AC0034BF012000205DF808FB00BF4DF808ED9E
:1021BC00FFF7E0FF94BF012000205DF808FB00BF93
:1021CC004DF808EDFFF7CEFF94BF012000205DF81D
:1021DC0008FB00BF4DF808EDFFF7C4FF34BF01202A
:1021EC0000205DF808FB00BF4FEA410C7FEA6C5CF5
:1021FC0002D150EA013C0AD14FEA430C7FEA6C5CF5
:10220C0002D152EA033C02D14FF0000070474FF06C
:10221C00010070474FEA410212F5001215D211D598
:10222C006FF47873B3EB625212D94FEAC12343F0C7
:10223C00004343EA505311F0004F23FA02F018BF49
:10224C00404270474FF00000704750EA013005D112
:10225C0011F0004008BF6FF0004070474FF00000D5
:10226C00704700BF4A0011D212F5001211D20DD5E1
:10227C006FF47873B3EB62520ED44FEAC12343F080
:10228C00004343EA505323FA02F070474FF000002A
:10229C00704750EA013002D14FF0FF3070474FF0D9
:1022AC00000070474FEA4102B2F1E04324BFB3F59E
:1022BC00001CDCF1FE5C0DD901F0004C4FEAC002B1
:1022CC004CEA5070B2F1004F40EB830008BF20F095
:1022DC000100704711F0804F21D113F13872BCBF4F
:1022EC0001F00040704741F480114FEA5252C2F1A4
:1022FC001802C2F1200C10FA0CF320FA02F018BFED
:10230C0040F001004FEAC1234FEAD32303FA0CFC3F
:10231C0040EA0C0023FA02F34FEA4303CCE77FEACE
:10232C00625307D150EA01331EBF4FF0FE4040F418
:10233C004000704701F0004040F0FE4040F40000C7
:10234C00704700BF4FF0FF3C06E000BF4FF0010CA0
:10235C0002E000BF4FF0010C4DF804CD4FEA4002F3
:10236C004FEA41037FEA226C18BF7FEA236C11D03D
:10237C0001B052EA530C18BF90EA010F58BFB2EBF0
:10238C00030088BFC81738BF6FEAE17018BF40F070
:10239C00010070477FEA226C02D15FEA402C05D124
:1023AC007FEA236CE4D15FEA412CE1D05DF8040BA9
:1023BC00704700BF844608466146FFE70FB5FFF73C
:1023CC00C9FF002848BF10F1000F0FBD4DF808EDF4
:1023DC00FFF7F4FF0CBF012000205DF808FB00BFE5
:1023EC004DF808EDFFF7EAFF34BF012000205DF83F
:1023FC0008FB00BF4DF808EDFFF7E0FF94BF01208C
:10240C0000205DF808FB00BF4DF808EDFFF7D2FF88
:10241C0094BF012000205DF808FB00BF4DF808EDCB
:10242C00FFF7C8FF34BF012000205DF808FB00BF98
:10243C0042000ED2B2F1FE4F0BD34FF09E03B3EB22
:10244C00126209D44FEA002343F0004323FA02F04E
:10245C0070474FF00000704712F1610F01D142023A
:10246C0002D14FF0FF3070474FF00000704700BFB3
:10247C0010B5054C13462CB10A4601460220AFF3A9
:10248C00008010BD204610BD0000000010B5431E9A
:10249C000A44914204D011F8014B03F8014FF8E7BC
:1024AC0010BD03460244934202D003F8011BFAE725
:1024BC007047000038B5124B05461C68A36BD3B9A6
:1024CC001820FEF765FB43F20E33A06303804AF637
:1024DC00CD33438041F2342383804EF26D63C3804D
:1024EC004DF6EC630381052343810B238381012289
:1024FC000023C0E90423A36B00221D615A6138BD7F
:10250C0068000020034613F8012B002AFBD1181A8F
:10251C00013870471D000A085D000A0889000A0886
:10252C008D000A0800000000496E697469616C69CD
:10253C007A696E672E2E2E004D415833303130356E
:10254C0020776173206E6F7420666F756E642E2019
:10255C00506C6561736520636865636B2077697285
:10256C00696E672F706F7765722E2000506C6163F7
:10257C006520796F757220696E6465782066696E66
:10258C00676572206F6E207468652073656E736F5B
:10259C007220776974682073746561647920707235
:1025AC006573737572652E0049523D002C204250A4
:1025BC004D3D002C204176672042504D3D00204E71
:1025CC006F2066696E6765723F00AC004101430283
:1025DC009F03500542075609640B3F0DB80EAC0F14
:1025EC00001000000000000000000000BD0B0A08F5
:1025FC00BF0B0A086E616E006F766600696E66002E
:10260C00626175640053657269616C005553425385
:10261C00657269616C31007479706500706172610A
:10262C006D00636D6400696400686E64007374729D
:10263C006D0066696C74006C766C00616464486152
:10264C006E646C65720072656D6F766548616E6460
:10265C006C657200656E756D48616E646C65727345
:10266C00004A534F4E53747265616D4C6F674861ED
:10267C006E646C65720061707000253031307520AD
:10268C00005D20002564002C200028293A20002021
:10269C005B00636F6465203D2000256900646574F0
:1026AC0061696C73203D20000D0A006C6E00666E33
:1026BC0000636F64650064657461696C006E6F6EB5
:1026CC006500747261636500696E666F0077617294
:1026DC006E006572726F720070616E696300616C7E
:1026EC006C005A00252B3033643A253032750025A6
:1026FC00592D256D2D25645425483A254D3A2553E1
:10270C00257A0061736374696D6500000000000038
:10271C000000000055100A0845100A0847100A0866
:10272C00000000000000000011110A0861110A08E5
:10273C006F110A080D0C0A084D110A0813110A082A
:10274C0029110A085B110A083F110A080D110A0821
:10275C000000000000000000B1120A0801130A0872
:10276C000F130A080D0C0A08C5120A08E7120A080A
:10277C00D3120A08FB120A08B3120A08B7120A0885
:10278C000000000000000000AD130A08F7130A084F
:10279C00CF130A08AF130A08D7130A08DF130A0865
:1027AC00E7130A08EF130A080000000000000000FD
:1027BC0011150A0807150A08FD140A087B140A08E3
:1027CC009B0E0A08F1140A08E5140A08DD140A081D
:1027DC00D3140A08C9140A0885140A08000000005A
:1027EC000000000031150A083B150A0845150A08B7
:1027FC004F150A0859150A0865150A0871150A08B3
:10280C007D150A0885150A088F150A0899150A08F6
:10281C0000000000000000000000000000000000AC
:10282C00000000000000000000000000000000009C
:10283C00000000000000000000000000000000008C
:10284C00000000000000000000000000000000007C
:10285C00000000000000000000000000000000006C
:10286C00000000000000000000000000000000005C
:10287C00430000007D020A08DD030A08A7080A08C5
:10288C00AB080A08F50B0A08A90E0A08B90E0A08C3
:10289C00F10E0A081D150A08E9150A08FD150A08A3
:1028AC0041160A08C1160A0845170A0809180A0829
:0428BC00CD180A0821
:0428C0000000000014
:1028C400ECFF14000F270A08000000001C280A0867
:1028D4003C280A085C280A080000000000000000E8
:1028E40000000000000000007C280A08000000002E
:1028F40000000000000000000000000000000000D4
:1029040000000000000000000000000000000000C3
:1029140000000000000000000000000000000000B3
:0C2924000000000000000000080000207F
:10293000FFFFFFFF00000102030405060708090A64
:102940000B0C0D0E0F101112131415161718191A5F
:082950001B1C1D1E1F202800A6
:042958007856341267
:04000005080A001CC9
:00000001FF
